:020000040000FA
:10000000400500206D020000710200007302000034
:100010007502000077020000790200000000000075
:100020000000000000000000000000007B02000053
:100030007D020000000000007F020000810200003D
:10004000830200008302000083020000830200009C
:10005000830200008302000083020000830200008C
:10006000830200008302000083020000830200007C
:10007000830200008302000083020000830200006C
:10008000830200008302000083020000830200005C
:10009000830200008302000083020000830200004C
:1000A000830200008302000083020000830200003C
:1000B0008302000083020000291800008302000070
:1000C000830200008302000083020000830200001C
:1000D000830200008302000083020000830200000C
:1000E00083020000830200008302000083020000FC
:1000F00083020000830200008302000083020000EC
:1001000083020000830200008302000083020000DB
:1001100083020000830200008302000083020000CB
:1001200083020000830200008302000083020000BB
:1001300083020000830200008302000083020000AB
:1001400000000000000000000000000000000000AF
:10015000830200008302000083020000830200008B
:10016000000000000000000000000000000000008F
:10017000000000000000000000000000000000007F
:10018000000000000000000000000000000000006F
:10019000000000000000000000000000000000005F
:1001A000000000000000000000000000000000004F
:1001B000830200008302000083020000830200002B
:1001C000830200008302000083020000830200001B
:1001D000830200008302000083020000830200000B
:1001E00083020000830200008302000083020000FB
:1001F00083020000830200008302000083020000EB
:10020000830200008302000083020000000000005F
:1002100083020000830200008302000083020000CA
:1002200083020000830200008302000083020000BA
:1002300083020000830200008302000083020000AA
:10024000830200008302000083020000830200009A
:10025000830200008302000083020000830200008A
:1002600083020000830200008302000000F00AB84D
:10027000FEE7FEE7FEE7FEE7FEE7FEE7FEE7FEE756
:10028000FEE7FEE700F002F800F0A6F814A696E8F4
:10029000000CB244B344DA4501D100F09DF8BAE84D
:1002A0000F000FA696E83000A5EB040504EB060747
:1002B000AAEB0704A7F101074FEA15154FEA34141A
:1002C000A4F10104AC4201D300F086F813F0010F51
:1002D00018BFFB1A43F0010300F001F8DBE71847F1
:1002E0007061000090610000103A24BF78C878C1A6
:1002F000FAD8520724BF30C830C144BF04680C602C
:1003000070470000704700000023002400250026ED
:10031000103A28BF78C1FBD8520728BF30C148BF68
:100320000B6070476E2900F08581702900F0C7824C
:10033000662905F0F084652905F0ED84672905F04C
:10034000EA84612905F0E98403681B0A28BF41F0AB
:100350008001692900F03281642900F02F8175291C
:1003600000F02C816F2900F05582782900F09382EB
:10037000E92900F0EF81E42900F0EC81F52900F093
:10038000E981EF2900F05282F82900F09282036897
:10039000DB0928BF41F08001632900F097877329AA
:1003A00000F09C87E32900F0A787F32900F0AC87D1
:1003B000002070471FB501F001F804000020002163
:1003C00004F0A8FC401C60600020002104F08CFCBC
:1003D000E0601FBD10B510BD00F0C2FF1146FFF771
:1003E000E9FF03F099F801F09FF803B4FFF7F2FF7B
:1003F00003BC01F0E3F8000072B6704762B67047C4
:10040000EFF3108072B6704780F31088704730BFEA
:10041000704702480249014A024B704740010020E0
:1004200040050020400100200FB41CB5084B06AA6F
:100430007B4469460090059800F015F904460020B9
:10044000694600F023F920461CBC5DF814FB00004F
:100450005902000040EA0103024630B59B0710D163
:100460004FF0013400E008C208C91D1B9D4315EA86
:10047000C41FF8D013F0FF0102F8011B0DD01B0AB6
:10048000F8E711F8013B002B02F8013B05D011F809
:10049000013B002B02F8013BF3D130BD10B5431CEA
:1004A00002E010F8011B71B18107FAD14FF001325F
:1004B00002C88C1A8C4314EAC211F9D0C01A0A0679
:1004C00003D0C01E10BDC01A10BD0A0401D0801E8A
:1004D00010BD0902FCD0401E10BD70477047704728
:1004E00010B500F0BBFA006810BD10B5044600F06E
:1004F000B5FA046010BD70B5044685690068C10690
:1005000001D5302600E02026C00707D070BDD4E911
:10051000012130469047206A401C20626D1EF6D5AE
:1005200070BD70B5044685690078C00707D170BDFD
:10053000D4E9012120209047206A401C20626D1ED2
:10054000F6D570BD09684A0501D540B27047C905A6
:10055000FCD500B2704709684A0501D5C0B27047A2
:10056000C905FCD580B2704770B50C460546012A16
:1005700005D02878800600D5EA69002302E001232F
:1005800005E05B1C934202D2E05C0028F9D1A86927
:10059000E618C01AA861286A184428622846FFF79E
:1005A000AAFF04E0D5E9012114F8010B9047B442F9
:1005B000F8D32846FFF7B5FF70BD00002DE9F041E4
:1005C0000646002410687529314616A510D0FFF79D
:1005D000B9FF002802DA404213A507E031688A0714
:1005E00001D512A502E0490704D511A5012401E0B7
:1005F000FFF7B1FF00210A2206F1240709E0B0FB52
:10060000F2FCB0FBF2F302FB1C00303078541846C9
:10061000491C0028F3D123462A463046BDE8F04164
:1006200000F065BA000000002D0000002B00000063
:100630002000000011680268006A530501D50870A7
:100640000AE0D30501D5088006E0130603D5C217DA
:10065000C1E9000200E008600120704701694A1CFE
:1006600002610878704700B58FB0CDE901310021F3
:10067000059105497944CDE903101146684600F01B
:1006800029F90FB000BD0000E5FFFFFF0A6802F87E
:10069000010B0A60704700002DE9FF5F15468A468E
:1006A0000446DFF8AC80F8440027D8E900103E4645
:1006B000CDE9001010E03AF816106A4602A800F0E2
:1006C00027FE411C07D02178890603D5E269391835
:1006D00091420DD80744761C2078800602D5E06947
:1006E000B84205DDAE42E6DB3AF816000028E2D15A
:1006F000A069C01BA0612046FFF7FDFED8E90010ED
:10070000CDE90010002017E03AF818106A4602A858
:1007100000F0FEFDB0F1FF3F81460BD000250DF14A
:10072000080B05E0D4E901211BF8050090476D1C7A
:100730004D45F7D308F10100B0428046E4DB206A62
:10074000384420622046FFF7ECFEBDE8FF9F000022
:10075000865800002DE9F0418046D21D22F00702A4
:100760000025D2E90002F52915A614D0011E72F168
:10077000000106DA0023D0EB030063EB020211A6AE
:1007800008E0D8F800108B0701D50FA602E0490752
:1007900001D50EA601251146002408F1240704E026
:1007A00000F060F930323A55641C50EA0102F7D18A
:1007B0002B46324621464046BDE8F04100F097B94D
:1007C000000000002D0000002B00000020000000B1
:1007D00030B4002100F1240408E002F00705D2083B
:1007E000303542EA4372DB086554491C52EA03057E
:1007F000F3D10468002310A2250708D504F02004D3
:100800000C4304D0C46901230CA2641EC46130BC33
:1008100000F06DB910B5044621461068FFF79BFE45
:1008200002462046BDE810400023D1E7D21D22F049
:100830000701D1E90023CBE70000000030000000F1
:10084000F0B40D460188090502D5214C7C4402E034
:100850001F4C7C440E34002100F1240608E002F015
:100860000F071209E75D42EA03721B097754491C1E
:1008700052EA0307F3D102780023120704D5702D42
:1008800006D009B1022311342246F0BC00F02FB982
:1008900001231034F8E770B504460D462146106870
:1008A000FFF759FE024629462046BDE87040002366
:1008B000C6E7D21D22F00703D3E90023C0E703688F
:1008C000126843F0200303600823C3610023B7E7E5
:1008D000E85600002DE9F05F894604464FF0000A13
:1008E000DFF874B1FB44C0F820A02046E1688847D7
:1008F000002874D0252806D0D4E901219047206A29
:10090000401C2062F1E700265F462046E1688847E8
:100910002028054607DB312D05D2781910F8200C68
:1009200008B10643F1E7B00701D526F00406C4F884
:100930001CA00027C4F818A02A2D09D0284603F0CF
:100940009FFB38B304EB8708303DC8F8185019E016
:1009500059F8041B204604EB87029161E16888473F
:10096000012F054618D1E069002820DA26F020067C
:100970001DE0D8F8180000EB800005EB400030388F
:10098000C8F818002046E1688847054603F078FB60
:100990000028EED1012F0AD02E2D08D12046E16883
:1009A00088477F1C0546022F46F02006C4DBA0695D
:1009B000002803DA404246F00106A061F00701D0AA
:1009C00026F010066C2D0BD0682D09D04C2D39D097
:1009D0006A2D35D0742D35D07A2D33D016E038E01D
:1009E000E1682F4620468847B842054609D16C2F5A
:1009F00026D04FF48060E1680643204688470546CC
:100A000004E06C2F1AD04FF4807006430DB3A5F1AB
:100A10004100192802D8203546F400664A46294686
:100A2000204626604E46FFF77DFC80B101280BD0A2
:100A3000F61D26F0070000F1080956E74020E4E71C
:100A40008020D8E70020D6E706F104094DE72846C4
:100A500052E7206ABDE8F09F7856000000487047D2
:100A60000800002030B5B0F10A0271F100034FEA2E
:100A7000900E4EEA817EB0EB0E0061EB91014FEAE1
:100A8000101E4EEA017E10EB0E0041EB11114FEAF1
:100A9000102E4EEA016E10EB0E0041EB11214FEAD1
:100AA000104E4EEA014E10EB0E0041EB1141401882
:100AB00041F100014FEAD00040EA41704FEAD10114
:100AC0004FEA810444EA907410EB800544EB010482
:100AD0006D1944EB0404521BA3414FF0000348BFBF
:100AE0000A3200D530BD401C41F1000130BD2DE976
:100AF000F0470D4699469246044600F124080168E5
:100B0000880604D5E06921F01001216000E0012091
:100B1000A84201DD471B00E00027A1697A1902EB1A
:100B20000900081AA0612078C00602D42046FFF709
:100B3000E2FC002608E0D4E901211AF806009047FB
:100B4000206A401C761C20624E45F4DB2078C006EB
:100B50000AD52046FFF7CFFC06E0D4E9012130207A
:100B60009047206A401C2062381EA7F10107F4DC80
:100B700007E0D4E9012118F805009047206A401CDD
:100B80002062281EA5F10105F3DC2046FFF7C9FC11
:100B90002078000602D50220BDE8F0870120FBE79F
:100BA0002DE9FF4F0C461E464FF0FF378BB0D2E9C0
:100BB0000001DDF860800A908A46C1F30A5505B944
:100BC0003D46002108464FF00000BAF1000F00F446
:100BD000400005DA00EB80004FF4400101EA5000CC
:100BE0004FEA9059B9F1010F00DDB9460A9850EA71
:100BF0004A000ED044F61050A5F2FF3545432F149D
:100C0000B8F1000F1ED07542291E1EDDC9F1000289
:100C10001CE0B8F1010F4FF0000001D0302103E0DB
:100C2000F24305E02154401CB042FBDB3046002279
:100C3000002121540B99C1F80880C1E900200FB0B0
:100C4000BDE8F08FBD1B6D1CDEE74A4600DA694245
:100C500006A800F0F7FB06AB93E8070003AB83E8B8
:100C6000070050460A9902F0B7FD8DE80700A0F58D
:100C700000501F3800900398002D0ADD42F21F013A
:100C80004A460844002303A90390684603F020F86D
:100C900009E0A0F500504A461F38002303A903903D
:100CA000684603F02AF88DE807000004000C03D022
:100CB0004FF0FF30410800E01046B8F1000F03D0BC
:100CC0000022009215461EE0751E05D4FFF7CAFEED
:100CD000303262556D1EF9D5B3460122084302D069
:100CE00000227F1C04E02078302801D100227F1EE2
:100CF000002A099784D01DE0112D07DAFFF7B2FE14
:100D0000303262556D1C50EA0102F5D1084302D021
:100D10000098C8B10EE00021681E05E0235C625C0B
:100D200063542254401E491C8142F7DBAB46A81B8A
:100D3000401E0990002004F80B000B98099AC0F897
:100D40000880C0E9002B7AE711264FF0000857E72A
:100D50002DE9F04F88460446D21D22F0070191B0DC
:100D6000D1E90001CDE90A0103F0FEF802460B9833
:100D7000C00F01D02D2007E02068810701D52B206E
:100D800002E0202101EAC000032A099001D0072ACD
:100D900005DB03464146204600F014FB0BE12078BA
:100DA000800601D5E06900E00620B8F1650F8146B4
:100DB00006D0B8F1660F18D0B8F1670F70D131E0E6
:100DC0000020B9F1110F009001DB112301E009F1BE
:100DD00001030AAA01A90CA8FFF7E2FEDDE90C70E5
:100DE000002609F10105834647E001204B460090AB
:100DF0004FF000470AAA01A90CA8FFF7D1FEDDE9D0
:100E00000DB00C995D46002610B909F101000D18CE
:100E1000B9EB050003D4C0F1FF3609F10105A5EBDC
:100E200009002BE0B9F1010F01DA4FF001090020B0
:100E3000B9F1110F0090484601DD112300E003468F
:100E40000AAA01A90CA8FFF7ABFEDDE90C704D461C
:100E500000268346207800070AD4AB4500DA5D46B9
:100E600001A8012D04DD411911F8011C302907D01A
:100E70004F4502DA17F1040F04DA012082460FE031
:100E80006D1EEEE7002F02DCED1B3E4403E0781CF4
:100E9000A84200DD7D1CB81B00F1010A4FF000479D
:100EA0002078000703D4AA4501DB4FF0FF3A002168
:100EB000B7F1004F0DF143088DF8431024D0022004
:100EC0002B23002F01DA7F422D230A21021EA0F1DD
:100ED000010000DC5FB197FBF1FC97FBF1F201FB35
:100EE0001C7C17460CF1300C08F801CDEEE7A8F198
:100EF000010003702188090501D5452100E0652125
:100F0000A0F1010800F8011C09980FA9A1EB08073E
:100F1000FF1D00B10120411901EBEA70A1693844BD
:100F2000081A401EA0612078C00602D42046FFF7B0
:100F3000E2FA099828B1D4E901219047206A401CBF
:100F400020622078C00622D52046FFF7D4FA1EE0A2
:100F5000002E04DBB34502DD01A8805D00E03020F7
:100F6000D4E901219047206A401C2062761CAAF136
:100F700001005FEA000A0AD100F020FAC0680168A7
:100F8000405CD4E901219047206A401C2062281E61
:100F9000A5F10105DCDC07E0D4E9012118F8010B1B
:100FA0009047206A401C2062381EA7F10107F3DC3D
:100FB0002046FFF7B6FA032011B041E62DE9F04FC5
:100FC00004460D46D21D22F0070089B0D0E90097F3
:100FD0004846394602F0C8FF0246F80F01D02D23DB
:100FE00007E02068810701D52B2302E0202101EAD8
:100FF000C0038DF820300BB1012000E00020032A4F
:10100000824601D0072A04DB2946204600F0DAF99F
:101010003FE12078800601D40D2500E0E569C7F3A3
:101020000A560D2D49DA00214FEA175B08464FF0AA
:101030000000002F00F4400007DA00EB80004FF4BE
:10104000400100EBD07001EA60008115012901DD4B
:101050004FF0FF3100224FEA850CBCF1180F06D388
:101060001346ACF118004FF08052C24003E04FF439
:10107000801323FA0CF30CF10C0CBCF1200F04D3F9
:10108000ACF1200C09FA0CF001E007FA0CF0002991
:101090004FF0004801DD18B90FE00ED140450CD3E8
:1010A00019EB02095F4121B9404502D19F4329EA6A
:1010B0000209BBEB175F00D0761C2088000502D523
:1010C0007B48784402E07A487844193808AA3023EB
:1010D00002F80A30037C0AF10101002E0AF1020A2B
:1010E00053546A4602DC4FF0300101E04FF0310109
:1010F0004FF001088DF8001002D0A6F2FF3603E091
:1011000059EA470100D06B4E002D02DC2178090717
:1011100004D54FF002082E218DF80110C44600219D
:101120000BE0C7F303433F01C35C491C6D1E02F88B
:101130000830052908F1010801DA002DF1DC002151
:101140000CE000EB1973491C1B786D1E082902F88E
:1011500008304FEA091908F1010801DA002DF0DC26
:1011600021688B0602D516E0A8F10108E04505DDEF
:1011700002EB080313F8013C302BF5D0B8F1000F57
:1011800009DD02EB080313F8013C2E2B03D10907FC
:1011900001D4A8F10108002D05DD3E2102F8081058
:1011A0006D1E08F10108407C002E02F8080008F1CD
:1011B000010804DA2D20764202F8080002E02B2014
:1011C00002F808000A214FF47A70864208F10108FB
:1011D0000BDB96FBF0F3303302F8083096FBF0F3AC
:1011E00008F1010800FB136601E0642E0CDB6420AB
:1011F00096FBF0F3303302F8083096FBF0F308F179
:10120000010800FB136601E00A2E06DB96FBF1F0F5
:10121000303002F8080008F1010896FBF1F001FBFC
:101220001060303002F80800A16908F1010808EBED
:10123000050202EB0A00081AA0612078C00602D459
:101240002046FFF758F9216A08AE01EB0A00206238
:1012500004E0D4E9012116F8010B9047BAF1010A24
:10126000F7D22078C00602D52046FFF744F96E4633
:1012700009E016F8010B3E280FD0D4E90121904770
:10128000206A401C2062B8F10108F2D22046FFF724
:1012900048F909B00320BDE8F08F206A2844206295
:1012A00003E0D4E90121302090476D1EEBD3F8E72D
:1012B000CD4E000002FCFFFF10B5436913B1AFF340
:1012C000008001E0FFF750F9012010BD127800F115
:1012D00024010A7000224A700122EDE711684FF0E4
:1012E000FF32E9E710B5436913B1AFF3008001E0C5
:1012F000FFF7D2F9012010BD128800F12401828489
:101300000022C2840122EDE711684FF0FF32E9E7C5
:101310002DE9F04116460C46054600F047F80368F3
:1013200093F80101012807D0FF2C12D8185D80B175
:1013300001202C70BDE8F081D3F807013246214628
:1013400003F20713C7182846BC46BDE8F041002346
:1013500060474FF0FF30EDE700487047080000207D
:101360007546FFF7F9FFAE4605006946534620F083
:101370000700854618B020B5FFF74BF8BDE82040C0
:101380004FF000064FF000074FF000084FF0000B41
:10139000AC46ACE8C009ACE8C009ACE8C009ACE8B0
:1013A000C00921F007018D467047000010B500F01C
:1013B00005F8001D10BD00BF5D39000000487047F2
:1013C000280000202DE9F0411F460446032601684D
:1013D000072A01F4006004DB08B116A505E016A594
:1013E00003E008B115A500E015A521F0100020606C
:1013F000A069C01EA0610FB1401EA0612046FFF78A
:101400007AF84FB1D4E9012138469047206A401C50
:101410002062C01C206206E0206AFAE7D4E90121BC
:1014200015F8010B9047761EF8D22046FFF779F8A1
:10143000BDE8F0814E414E006E616E00494E46009F
:10144000696E66002DE9F047814616468AB0354838
:1014500078440DC88DE80D0032487844801C03ACF8
:101460000DC884E80D0041F69B300844372190FBFD
:10147000F1F290FBF1F5A5F1800501FB12041B3C94
:1014800002D56442012000E00020DFF898A08046E9
:101490000027FA44AAF1BE0A0EE0E0070AD032465D
:1014A000684607EB470101230AEB810102F025FCA6
:1014B0008DE8070064107F1C002CEED1194F7F448B
:1014C000AE3F19E0E80715D007EB04100DF1180A3C
:1014D00090E80E008AE80E00C068F04201D1981929
:1014E00008903246012306A903A802F006FC03ABCC
:1014F00083E807006D10641C002DE3D14FF0010359
:1015000032466946B8F1000F03A802D002F0E0FBB2
:1015100001E002F0F2FBC9E90001C9F808200AB0B5
:10152000BDE8F087D04B000010B50446AFF3008053
:101530002046BDE81040FEF758BF00000000000044
:1015400030B44FF0013C50F8042B51F8043BCCFA76
:1015500052F4D51A20D1FCB950F8042B51F8043BB1
:10156000CCFA52F4D51A17D1B4B950F8042B51F86B
:10157000043BCCFA52F4D51A0ED16CB950F8042BB6
:1015800051F8043BCCFA52F4D51A05D1002CDAD02C
:1015900030BC4FF00000704729BAB1FA81F111F068
:1015A0001801D1F120008440F2D1CA40CB4012F0A2
:1015B000FF0213F0FF0330BCD01A70470149182016
:1015C000ABBEFEE726000200704700004EF2081195
:1015D000C4F20F01086840F020000860FFE74EF2F7
:1015E0000810C4F20F00006800F02000202801D08D
:1015F000FFE7F4E745F22051C4F2020144F24B3018
:10160000C4F64F40086045F22451C4F20201086854
:1016100040F01100086045F22851C4F20201086848
:1016200020F01100086045F22C51C4F20201086854
:1016300020F00F10086045F20041C4F20201086872
:1016400020F01100086045F22041C4F20201086850
:1016500020F01100086045F21051C4F20201086840
:1016600040F01100086045F21C51C4F20201086804
:1016700040F01100086045F20441C4F2020108681C
:1016800020F01100086045F20841C4F20201086828
:1016900020F01100086045F20C41C4F20201086814
:1016A00040F01100086045F21C41C4F20201112013
:1016B000086045F21041C4F20201086840F01100D0
:1016C00008604EF21C41CEF200010868062262F367
:1016D000575008604EF20011CEF20001086840F049
:1016E000804008607047000081B000900098013889
:1016F00046F22801C4F20301086046F20C01C4F26C
:101700000301086840F001000860FFE746F2480066
:10171000C4F20300006808B1FFE7F7E746F20C01E6
:10172000C4F20301086820F00100086001B07047AE
:1017300080B582B0009000998868C96804F0DFF82D
:1017400080B9FFE700998868096904F0D8F848B9BA
:10175000FFE700980088092804DBFFE700208DF8E8
:10176000070033E000988168C06804F0C8F880B9C9
:10177000FFE70099C868096904F0C1F848B9FFE7B4
:1017800000984088092804DBFFE701208DF8070056
:101790001CE000988168006904F0B1F880B9FFE7A7
:1017A0000098C168006904F0AAF848B9FFE70098FA
:1017B0008088092804DBFFE702208DF8070005E098
:1017C000FFE7FFE703208DF80700FFE79DF807001C
:1017D00002B080BD80B582B0ADF80600BDF906004C
:1017E00010F15A0F05DBFFE7BDF906005B2801DBAE
:1017F000FFE716E0BDF906006A4641F28731116045
:101800006FF059015A2240F2E73301F0A7FFADF81B
:101810000400BDF9040048F25801C4F20201086056
:10182000FFE702B080BD000080B53220FFF75CFF0B
:1018300045F21840C4F202000068C006002840F1DA
:10184000EC80FFE745F21C41C4F20201086840F059
:101850001000086040F20400C2F200000078D0B925
:10186000FFE745F21041C4F20201086820F00100D0
:10187000086040F20401C2F200010120087040F249
:10188000D601C2F200010020087045F23801C4F20E
:1018900002010860C0E040F20400C2F200000078DB
:1018A00001280DD1FFE740F20401C2F2000102203D
:1018B000087040F2D601C2F2000100200870AAE0D0
:1018C00040F20400C2F20000007802280DD1FFE7C8
:1018D00040F20401C2F200010420087040F2D60177
:1018E000C2F200010020087094E040F20400C2F24D
:1018F0000000007804280DD1FFE740F20401C2F295
:1019000000010320087040F2D601C2F2000100205D
:1019100008707EE040F20400C2F200000078032864
:1019200015D1FFE740F20401C2F200010520087062
:1019300048F20801C4F20201086840F001000860A2
:1019400040F2D601C2F200010020087060E040F2CF
:101950000400C2F200000078052815D1FFE740F22C
:101960000401C2F200010620087040F2D601C2F262
:1019700000010020087048F20801C4F20201086862
:1019800020F00100086042E040F20400C2F20000D2
:101990000078062815D1FFE740F20401C2F20001E9
:1019A0000720087040F2D601C2F200010020087042
:1019B00048F20801C4F20201086840F00100086022
:1019C00024E040F20400C2F20000007807281CD195
:1019D000FFE745F21041C4F20201086840F001003F
:1019E000086048F20801C4F20201086820F0010012
:1019F000086040F20401C2F200010020087040F2C9
:101A0000D601C2F200010870FFE7FFE7FFE7FFE73A
:101A1000FFE7FFE7FFE7FFE7FFE745F21840C4F203
:101A200002000068C00758B3FFE740F20400C2F2AA
:101A300000000078D8B9FFE740F2D700C2F20000FA
:101A40000178013101F007010170017846F23C0094
:101A5000C0F20000415C40F20000C2F200000160F0
:101A6000006845F23801C4F202010860FFE745F260
:101A70001C41C4F20201086840F001000860FFE761
:101A800080BD000084B08DF80E008DF80D1002921C
:101A90000193019820B9FFE700208DF80F007AE04C
:101AA000FFE70420C4F202000068C00708B1FFE7A6
:101AB000F7E79DF80E0040000021C4F20201086023
:101AC000086820F0010008609DF80D000821C4F2AC
:101AD000020108600421C4F2020103200860FFE74C
:101AE0000420C4F202000068C00708B1FFE7F7E76E
:101AF000FFE7019802281BD3FFE70298007808212E
:101B0000C4F2020108600298013002900421C4F27C
:101B1000020101200860FFE70420C4F2020000680F
:101B2000C00708B1FFE7F7E7019801380190E0E747
:101B3000029800780821C4F2020108600421C4F26E
:101B4000020105200860FFE70420C4F202000068DB
:101B5000C00708B1FFE7F7E7FFE70420C4F202007F
:101B600000684006002801D5FFE7F6E70420C4F22C
:101B70000200006800F002008DF803009DF90300E8
:101B800028B1FFE79DF803008DF80F0003E0002067
:101B90008DF80F00FFE79DF80F0004B070470000BC
:101BA0004EF20411C4F20F01086840F4805008603E
:101BB0004EF20811C4F20F01086840F002000860FC
:101BC000FFE74EF20810C4F20F00006800F00200B8
:101BD000022801D0FFE7F4E745F21C51C4F20001EE
:101BE000086840F00C00086045F22041C4F2000192
:101BF000086840F00C00086045F22C51C4F2000166
:101C0000086820F47F400A68104340F44C50086094
:101C100045F20C51C4F20001086840F00800086069
:101C200045F22851C4F20001086820F00C00086059
:101C30002021C4F20201086840F0100008600C2165
:101C4000C4F202010868072262F3070008607047C7
:101C500081B08DF802008DF80110FFE70420C4F276
:101C600002000068C00708B1FFE7F7E79DF802002F
:101C700040000021C4F2020108609DF80100082123
:101C8000C4F2020108600421C4F20201086840F0B5
:101C900003000860FFE70420C4F202000068C007E8
:101CA00008B1FFE7F7E79DF802004000013000218E
:101CB000C4F2020108600421C4F20201086840F085
:101CC00007000860FFE70420C4F202000068400635
:101CD000002801D5FFE7F6E70420C4F202000068FF
:101CE00000F002008DF800009DF9000028B1FFE728
:101CF0009DF800008DF8030006E00820C4F2020001
:101D000000688DF80300FFE79DF8030001B07047FD
:101D100082B08DF806008DF805108DF80420FFE7DD
:101D20000420C4F202000068C00708B1FFE7F7E72B
:101D30009DF8060040000021C4F202010860086816
:101D400020F0010008609DF805000821C4F202019E
:101D500008600421C4F20201086840F00300086032
:101D6000FFE70420C4F202000068C00708B1FFE7E3
:101D7000F7E79DF804000821C4F20201086004217D
:101D8000C4F20201086840F005000860FFE7042083
:101D9000C4F202000068C00708B1FFE7F7E7FFE7F9
:101DA0000420C4F2020000684006002801D5FFE7C5
:101DB000F6E70420C4F20200006800F002008DF88B
:101DC00003009DF9030028B1FFE79DF803008DF89B
:101DD000070003E000208DF80700FFE79DF80700EB
:101DE00002B0704780B582B0012000F06DF8052088
:101DF000FFF77AFC0220019000F066F80198FFF7E7
:101E000073FC02B080BD000080B584B03220FFF7C3
:101E10006BFC3020019000F057F805200290FFF78E
:101E200063FC019800F050F801200390FFF75CFC80
:101E3000019800F049F80398FFF756FC202000F0C5
:101E400043F80398FFF750FC282000F03DF8039872
:101E5000FFF74AFC082000F037F80398FFF744FC2E
:101E6000039800F031F80298FFF73EFC062000F0DE
:101E70002BF80398FFF738FC0F2000F025F802201C
:101E8000FFF732FCFFF7AEFF00F016F804B080BD9C
:101E900080B582B00190FFE70198007850B1FFE76C
:101EA0000198411C0191007800F03EF80220FFF7F4
:101EB0001BFCF1E702B080BD80B5022000F004F801
:101EC0000120FFF711FC80BD80B582B08DF80700BE
:101ED0009DF8070000F0F0008DF806009DF807005F
:101EE00000018DF805009DF8060040F00C008DF80B
:101EF00001009DF8060040F008008DF802009DF8F2
:101F0000050040F00C008DF803009DF8050040F03E
:101F100008008DF804003F2000210DF10102042388
:101F2000FFF7B0FD02B080BD80B582B08DF807002C
:101F30009DF8070000F0F0008DF806009DF80700FE
:101F400000018DF805009DF8060040F00D008DF8A9
:101F500001009DF8060040F009008DF802009DF890
:101F6000050040F00D008DF803009DF8050040F0DD
:101F700009008DF804003F2000210DF10102042327
:101F8000FFF780FD02B080BD80B582B08DF80700FC
:101F90008DF806109DF807000146009120B1FFE77B
:101FA0000098012807D00DE09DF8060040F0800061
:101FB0008DF806000DE09DF8060040F0C0008DF899
:101FC000060006E09DF8060040F080008DF806004F
:101FD000FFE79DF80600FFF777FF0220FFF784FB7D
:101FE00002B080BD4EF20811C4F20F01086840F043
:101FF00020000860FFE74EF20810C4F20F000068EE
:1020000000F02000202801D0FFE7F4E745F224513A
:10201000C4F20201086840F00E00086045F2285141
:10202000C4F20201086820F00E00086045F22C514D
:10203000C4F2020108684FF6F0729043086045F25E
:102040000041C4F20201086840F00E00086045F249
:102050002041C4F20201086820F00E00086045F239
:102060001051C4F20201086820F00E00086045F229
:102070001C51C4F20201086840F00E00086070476D
:1020800080B584B00390682000903C21FFF7E0FD0C
:10209000014600988DF80B103B21FFF7D9FD014652
:1020A00000988DF80A103E21FFF7D2FD01460098F6
:1020B0008DF809103D21FFF7CBFD014600988DF802
:1020C00008104021FFF7C4FD014600988DF8071065
:1020D0003F21FFF7BDFD8DF806009DF80A109DF821
:1020E0000B0040EA0120039908809DF808109DF834
:1020F000090040EA0120039948809DF806109DF8E8
:10210000070040EA01200399888004B080BD0000E8
:1021100080B596B015901491139215998868C96886
:10212000019103F0A5FB024601980492059103F08A
:102130009FFB00220B924FF080430C9302F0B8F803
:10214000029003911598006903F092FB0B9A0C9B87
:1021500002F0AEF8024602980B46039902F022FE06
:1021600002F09CFD024604980B46059902F0D6FE4B
:1021700001F08EFF42F68762C7F6DE1211924AF234
:102180001363C4F24C03129303F078F802F0D8FD05
:1021900013990860159881680691C06803F068FB80
:1021A0000246069809920A9103F062FB0B9A0C9B77
:1021B00002F07EF8079008911598006903F058FB2B
:1021C0000B9A0C9B02F074F8024607980B4608998C
:1021D00002F0E8FD02F062FD024609980B460A99FA
:1021E00002F09CFE01F054FF119A129B03F046F896
:1021F00002F0A6FD139948601598806803F038FB3B
:102200000B9A0C9B02F054F80D900E911598C06833
:1022100003F02EFB0B9A0C9B02F04AF802460D9835
:102220000B460E9902F0BEFD02F038FD0F901091A2
:102230001598006903F01CFB02460F980B46109995
:1022400002F06CFE01F024FF119A129B03F016F8C5
:1022500002F076FD1399886016B080BD80B584B019
:102260000390682000904421FFF7F2FC014600989B
:102270008DF80B104321FFF7EBFC014600988DF819
:102280000A104621FFF7E4FC014600988DF809107A
:102290004521FFF7DDFC014600988DF80810482124
:1022A000FFF7D6FC014600988DF807104721FFF78D
:1022B000CFFC8DF806009DF80A109DF80B0040EA4F
:1022C0000120039908809DF808109DF8090040EA54
:1022D0000120039948809DF806109DF8070040EA08
:1022E00001200399888004B080BD000080B586B0CD
:1022F00068207521FFF7ACFC8DF817009DF81700DA
:10230000682807D0FFE746F27000C0F2000001F035
:10231000B9F8ACE09DF8172046F24611C0F2000172
:102320000DF10D000090FEF77FF8009801F0AAF87B
:1023300046F25400C0F2000001F0A4F846F2B800E2
:10234000C0F2000001F09EF8682001906B2102911C
:102350008022FFF7DDFC8DF8170046F24400C0F242
:10236000000001F08FF8019802990122FFF7D0FCDC
:102370008DF817009DF8170038B1FFE746F23210CC
:10238000C0F2000001F07EF806E046F2A600C0F2BE
:10239000000001F077F8FFE7682019218022FFF79D
:1023A000B7FC8DF817009DF8170038B1FFE746F22B
:1023B0003210C0F2000001F065F806E046F24F105E
:1023C000C0F2000001F05EF8FFE768201A21012248
:1023D000FFF79EFC8DF817009DF8170038B1FFE756
:1023E00046F23210C0F2000001F04CF806E046F26E
:1023F0001A10C0F2000001F045F8FFE768201C2128
:102400000822FFF785FC8DF817009DF8170038B1FA
:10241000FFE746F23210C0F2000001F033F806E0A8
:1024200046F2F400C0F2000001F02CF8FFE768204B
:102430001B210822FFF76CFC8DF817009DF8170090
:1024400038B1FFE746F23210C0F2000001F01AF88E
:1024500006E046F2D200C0F2000001F013F8FFE7F8
:1024600046F29000C0F2000001F00CF8FFE706B061
:1024700080BD000080B598B0179068201C21FFF740
:10248000E7FB8DF85B009DF95B000838014615916C
:10249000182800F2F0801599DFE811F01900ED001E
:1024A000ED00ED00ED00ED00ED00ED004E00ED0063
:1024B000ED00ED00ED00ED00ED00ED008300ED001E
:1024C000ED00ED00ED00ED00ED00ED00B800179817
:1024D0001090B0F9000003F03FFB03F0C9F90022AF
:1024E00012920023C4F2D003139302F017FD02F0FE
:1024F00027FC1099886017981190B0F9020003F03A
:102500002BFB03F0B5F9129A139B02F007FD02F0C2
:1025100017FC1199C86017981490B0F9040003F0E3
:102520001BFB03F0A5F9129A139B02F0F7FC02F0D3
:1025300007FC149908619EE017980B90B0F9000011
:1025400003F00AFB03F094F900220D920023C4F279
:10255000C0030E9302F0E2FC02F0F2FB0B998860DC
:1025600017980C90B0F9020003F0F6FA03F080F926
:102570000D9A0E9B02F0D2FC02F0E2FB0C99C860AF
:1025800017980F90B0F9040003F0E6FA03F070F921
:102590000D9A0E9B02F0C2FC02F0D2FB0F9908616B
:1025A00069E017980690B0F9000003F0D5FA03F03F
:1025B0005FF9002208920023C4F2B003099302F0ED
:1025C000ADFC02F0BDFB0699886017980790B0F942
:1025D000020003F0C1FA03F04BF9089A099B02F0DC
:1025E0009DFC02F0ADFB0799C86017980A90B0F9FE
:1025F000040003F0B1FA03F03BF9089A099B02F0DA
:102600008DFC02F09DFB0A99086134E01798019057
:10261000B0F9000003F0A0FA03F02AF900220392B7
:102620000023C4F2A003049302F078FC02F088FBBC
:102630000199886017980290B0F9020003F08CFAB3
:1026400003F016F9039A049B02F068FC02F078FB91
:102650000299C86017980590B0F9040003F07CFA5D
:1026600003F006F9039A049B02F058FC02F068FBA1
:1026700005990861FFE718B080BD000080B598B0EB
:10268000179068201C21FFF7E3FA8DF85B009DF995
:102690005B00083801461591182800F2F68015995C
:1026A000DFE811F01900F300F300F300F300F3008A
:1026B000F300F3004F00F300F300F300F300F30026
:1026C000F300F3008500F300F300F300F300F300E0
:1026D000F300F300BC0017981090B0F9000003F06D
:1026E0003BFA03F0C5F80022129246F20003C4F24E
:1026F0006003139302F012FC02F022FB1099886031
:1027000017981190B0F9020003F026FA03F0B0F820
:10271000129A139B02F002FC02F012FB1199C8609E
:1027200017981490B0F9040003F016FA03F0A0F81B
:10273000129A139B02F0F2FB02F002FB149908615B
:10274000A3E017980B90B0F9000003F005FA03F02E
:102750008FF800220D9246F20003C4F250030E934C
:1027600002F0DCFB02F0ECFA0B99886017980C90F1
:10277000B0F9020003F0F0F903F07AF80D9A0E9B1D
:1027800002F0CCFB02F0DCFA0C99C86017980F90AD
:10279000B0F9040003F0E0F903F06AF80D9A0E9B1B
:1027A00002F0BCFB02F0CCFA0F9908616DE01798BB
:1027B0000690B0F9000003F0CFF903F059F84FF09C
:1027C0006632089246F26663C4F24003099302F04F
:1027D000A5FB02F0B5FA0699886017980790B0F942
:1027E000020003F0B9F903F043F8089A099B02F0DC
:1027F00095FB02F0A5FA0799C86017980A90B0F9FE
:10280000040003F0A9F903F033F8089A099B02F0D9
:1028100085FB02F095FA0A99086136E01798019055
:10282000B0F9000003F098F903F022F84FF0663297
:10283000039246F26663C4F23003049302F06EFB27
:1028400002F07EFA0199886017980290B0F90200B0
:1028500003F082F903F00CF8039A049B02F05EFB8C
:1028600002F06EFA0299C86017980590B0F904005A
:1028700003F072F902F0FCFF039A049B02F04EFB96
:1028800002F05EFA05990861FFE718B080BD00000C
:1028900080B582B08DF807009DF8070001460091D1
:1028A00007281ED80099DFE801F004070A0D10136D
:1028B000161900F023FA15E000F048FD12E000F0D0
:1028C00049FB0FE000F090FB0CE000F0C3FC09E0D6
:1028D00000F03EFC06E000F05BFB03E000F020FAB5
:1028E00000E0FFE702B080BD4EF20861C4F20F01C4
:1028F000086840F002000860FFE74EF60820C4F2C6
:102900000F00006800F00200022801D0FFE7F4E7A2
:1029100045F22041C4F20001086840F04000086020
:1029200045F22C51C4F20001086820F07060086084
:10293000086840F08060086045F22851C4F2000148
:10294000086820F04000086045F21C51C4F2000104
:10295000086840F04000086045F20851C4F20001E8
:10296000086840F0400008604EF24061C4F20F0178
:10297000086840F0010008604EF26001C4F20F01E7
:10298000086840F480100860086820F4602008603F
:10299000086840F48020086048F24001C4F2020157
:1029A0000020086048F26003C4F202031A6842F093
:1029B000C8021A6048F25003C4F2020349F63F42CB
:1029C0001A6048F25802C4F202021060086840F02F
:1029D0000100086048F20801C4F20201086840F0F2
:1029E000010008607047000080B582B02920009087
:1029F0009A21FFF72DF9014600988DF807109B21C9
:102A0000FFF726F98DF806009DF806109DF80700DF
:102A100040EA0120ADF804000320FEF765FEBDF892
:102A2000040002B080BD000080B582B02920009073
:102A30009421FFF70DF9014600988DF807109521B4
:102A4000FFF706F98DF806009DF806109DF80700BF
:102A500040EA0120ADF804000320FEF745FEBDF872
:102A6000040002B080BD000080B582B02920009033
:102A70009821FFF7EDF8014600988DF8071099218D
:102A8000FFF7E6F88DF806009DF806109DF80700A0
:102A900040EA0120ADF804000320FEF725FEBDF852
:102AA000040002B080BD000080B582B029200090F3
:102AB0009621FFF7CDF8014600988DF80710972171
:102AC000FFF7C6F88DF806009DF806109DF8070080
:102AD00040EA0120ADF804009DF806109DF80700BB
:102AE00040EA0120ADF804000320FEF7FDFDBDF82B
:102AF000040002B080BD000080B58AB0099009983A
:102B0000C08840B9FFE70999002008610999C860A9
:102B10000999886050E009980290008803F01CF839
:102B2000014602980191C08803F02EF801460198F1
:102B300002F000FF02F09CFE002206924EF200031B
:102B4000C4F26F03079302F099FB02F0F9F80299BF
:102B5000886009980490408802F0FEFF01460498BE
:102B60000391C08803F010F80146039802F0E2FEDA
:102B700002F07EFE069A079B02F080FB02F0E0F86E
:102B80000499C86009980890808802F0E5FF014622
:102B900008980591C08802F0F7FF0146059802F0F9
:102BA000C9FE02F065FE069A079B02F067FB02F081
:102BB000C7F808990861FFE70AB080BD80B588B002
:102BC00029209221FFF744F88DF81F009DF81F205F
:102BD00046F24611C0F200010DF10B000190FDF725
:102BE00023FC019800F04EFC9DF81F004D2807D0F3
:102BF000FFE746F29220C0F2000000F043FC7AE0CA
:102C000046F27520C0F2000000F03CFC2920812132
:102C1000FF22FFF77DF88DF81F009DF81F0038B1E7
:102C2000FFE746F23230C0F2000000F02BFC06E075
:102C300046F2FE20C0F2000000F024FCFFE7032073
:102C4000FEF752FD29208F210122FFF761F88DF850
:102C50001F009DF81F0038B1FFE746F23230C0F286
:102C6000000000F00FFC06E046F21E30C0F200004B
:102C700000F008FCFFE7292080210122FFF748F837
:102C80008DF81F009DF81F0038B1FFE746F2323083
:102C9000C0F2000000F0F6FB06E046F2EA20C0F2C7
:102CA000000000F0EFFBFFE703200090FEF71CFDA3
:102CB000009A29208021FFF72BF88DF81F009DF83E
:102CC0001F0038B1FFE746F23230C0F2000000F0DA
:102CD000D9FB06E046F2D720C0F2000000F0D2FB9C
:102CE000FFE70320FEF700FD46F2B320C0F200002C
:102CF00000F0C8FBFFE708B080BD000080B540F2DF
:102D00000000C2F20000026845F23801C4F202017C
:102D10000868504008604FF4FA70FEF7E5FC80BD8B
:102D200010B596B040F26800C2F200001090FFF7B4
:102D3000A7F940F28800C2F200001190FFF78EFA66
:102D40001098FFF797FB1198FFF798FC10981199CE
:102D500040F27C02C2F200021292FFF7D9F91298F7
:102D6000006802F0DDFEFEF735FDFFF79DFE40F244
:102D70009C01C2F2000113910880FFF775FE1399C0
:102D80004880FFF731FE13998880FFF74DFE01461A
:102D90001398C180FFF7B0FE1398FEF7C9FC159099
:102DA00015981490032848D81499DFE801F002130D
:102DB000243545F23801C4F202010220086040F2D5
:102DC000D000C2F2000046F28511C0F20001FDF70A
:102DD00041FB32E045F23801C4F2020108200860EC
:102DE00040F2D000C2F2000046F28E11C0F20001A3
:102DF000FDF730FB21E045F23801C4F20201042066
:102E0000086040F2D000C2F2000046F28911C0F220
:102E10000001FDF71FFB10E045F23801C4F202018A
:102E20000020086040F2D000C2F2000046F27E119D
:102E3000C0F20001FDF70EFBFFE740F29C01C2F279
:102E400000018868CA6804920969059102F010FDC2
:102E5000024604980792089102F00AFD024605987E
:102E60000992069102F004FDDDF818C0079A089B4C
:102E7000864609980C466946CC60C1F808E0C1F85E
:102E800004C0086040F2D800C2F200000A9046F286
:102E90009411C0F20001FDF7C7FA0A9800F0F2FAA7
:102EA00000F0D0FA40F27C00C2F200000B90006803
:102EB00002F0DEFC02460A980B4640F2D001C2F254
:102EC00000010C91EC46CCF8001046F25521C0F2FE
:102ED0000001FDF7A9FA0A9800F0D4FA00F0B2FA5E
:102EE0000B98006802F0C4FC02460B4640F2B000AA
:102EF000C2F200000D9046F21921C0F20001FDF768
:102F000093FA0C9A40F2C000C2F200000F9046F211
:102F10006C21C0F20001FDF787FAFEF763FF022083
:102F20000E90FEF7E1FB00210846FFF72DF80D9803
:102F3000FEF7AEFF0E98FEF7D7FB01210846FFF71C
:102F400023F80F98FEF7A4FF1420FEF7CDFB16B070
:102F500010BD000080B582B029209221FEF778FED6
:102F60008DF807009DF8072040F2D800C2F200005B
:102F7000009046F26311C0F20001FDF755FA009887
:102F800000F080FA4FF47A70FEF7AEFB02B080BD1D
:102F900080B584B046F27610C0F20000039003982A
:102FA000FDF77CFA8DF80B009DF80B00C0F11000C6
:102FB00000EBD07040088DF80A00FEF713FF1E20CA
:102FC0000190FEF791FB9DF80A100120FEF7DCFF4F
:102FD0000198FEF789FB0398FEF75AFF4FF4FA6059
:102FE000FEF782FB04B080BDB0B59AB040F2680035
:102FF000C2F200000490FFF743F840F28800C2F2EA
:1030000000000B90FFF72AF90498FFF733FA0B98AA
:10301000FFF734FB04980B9940F27C02C2F20002E5
:103020001292FFF775F804998868CA6805920969D1
:10303000069102F01DFC024605980892099102F0E3
:1030400017FC024606980A92079102F011FCDDF87F
:103050001CC0089A099B86460A980C466946CC60B3
:10306000C1F808E0C1F804C0086040F2D800C2F21C
:103070000000199046F2DC11C0F20001FDF7D4F90E
:10308000199800F0FFF90B998868CA680C920969D1
:103090000D9102F0EDFB02460C980E920F9102F09A
:1030A000E7FB02460D981192109102F0E1FB0E9A97
:1030B0000F9BDDF840E0044619980D461199EC4647
:1030C000CCF80C50CCF80840CCF804E0CCF8001058
:1030D00046F2FA11C0F20001FDF7A6F9199800F0C6
:1030E000D1F900F0AFF9129908684A68139289681B
:1030F000149102F0BDFB024613981592169102F04E
:10310000B7FB024614981892179102F0B1FB159A7A
:10311000169BDDF85CE0044619980D461899EC46BC
:10312000CCF80C50CCF80840CCF804E0CCF80010F7
:1031300046F2AF11C0F20001FDF776F9199800F0E0
:10314000A1F900F07FF9FA20FEF7CEFA1AB0B0BD6F
:1031500080B582B040F20400C2F200000078052879
:1031600007D0FFE740F23C11C2F2000100200870D6
:103170006EE040F23C10C2F200000078014601917E
:10318000082860D80199DFE801F0050F1A242E38CD
:10319000434D57000020FEF71DFB40F23C11C2F2E8
:1031A0000001012008704EE06FF02C00FEF712FBCA
:1031B00040F23C11C2F200010220087043E00020FE
:1031C000FEF708FB40F23C11C2F200010320087038
:1031D00039E02D20FEF7FEFA40F23C11C2F2000168
:1031E000042008702FE00020FEF7F4FA40F23C11B2
:1031F000C2F200010520087025E06FF05900FEF7CB
:10320000E9FA40F23C11C2F20001062008701AE00F
:103210000020FEF7DFFA40F23C11C2F20001072065
:10322000087010E05A20FEF7D5FA40F23C11C2F2C5
:1032300000010820087006E040F23C11C2F20001D3
:1032400000200870FFE74FF47A70FEF74DFAFFE7B1
:1032500002B080BD10B58EB0FFF726FC40F29C0195
:10326000C2F200010C910880FFF7BEFB0C99888028
:10327000FFF7FAFB0C994880FFF7D6FB01460C9844
:10328000C180FFF739FC0C98FEF752FA01460D9108
:10329000032820D80D99DFE801F00209101745F244
:1032A0003801C4F202010220086014E045F238013E
:1032B000C4F20201082008600DE045F23801C4F2B2
:1032C00002010420086006E045F23801C4F2020160
:1032D00000200860FFE740F29C01C2F2000188680C
:1032E000CA6805920969069102F0C2FA0246059879
:1032F0000892099102F0BCFA024606980A920791D8
:1033000002F0B6FADDF81CC0089A099B86460A98B6
:103310000C466946CC60C1F808E0C1F804C00860FA
:1033200040F2D800C2F200000B9046F29411C0F2B5
:103330000001FDF779F80B9800F0A4F800F082F88E
:10334000FA20FEF7D1F90EB010BD000080B588B0AC
:103350007B20079041F6B860C4F20900059048F25E
:103360001F50C5F2EB100490079B0498059A69461C
:103370004A60086040F2D800C2F20000039046F2B2
:103380002521C0F2000146F28112C0F20002FDF7D1
:103390004BF8039800F076F800F054F84FF47A7088
:1033A000FEF7A2F908B080BD4EF20411C4F20F017D
:1033B000086840F0010008604EF20811C4F20F01E5
:1033C000086840F0010008604CF23001C4F20001CE
:1033D000002008604CF22400C4F2000011220260B8
:1033E0004CF22803C4F20003172018604CF22C039F
:1033F000C4F2000370201860086840F201331843DB
:10340000086044F22041C4F20001086840F0030063
:10341000086044F21C51C4F20001086840F0030047
:10342000086044F22C51C4F20001086862F30700FE
:10343000086044F22851C4F20001086820F003003B
:103440000860704780B50D2000F004F80A2000F0F5
:1034500001F880BD81B08DF80300FFE74CF2180041
:10346000C4F2000000688006002801D5FFE7F5E7F8
:103470009DF903004CF20001C4F20001086001B0A4
:103480007047000080B582B00190FFE70198007896
:1034900048B1FFE7019890F90000FFF7DBFF0198C2
:1034A00001300190F2E702B080BD00004EF25C6195
:1034B000C4F20F01086840F001000860FFE74EF217
:1034C0005C60C4F20F00006800F00100012801D028
:1034D000FFE7F4E746F20C01C4F20301086820F0AC
:1034E0000100086046F20001C4F20301086840F0E0
:1034F0000400086046F20401C4F20301086840F0C9
:103500000200086046F23801C4F2030147F20010DD
:10351000C0F202000860704780B582B000200190C0
:10352000FFF742FFFEF75EFDFEF750F8FFF7BEFF24
:10353000FEF736FBFFF742FBFEF7D8FEFFF7D4F9A4
:10354000FEF762FCFFF77EFFFFE740F20400C2F2E5
:1035500000000078C8B9FFE740F2D600C2F20000D0
:103560000078C00768B9FFE746F2C930C0F2000032
:10357000FFF788FF40F2D601C2F200010120087077
:10358000FFE70020FFF784F9FFE740F20400C2F2F2
:1035900000000078012819D1FFE740F2D600C2F2FE
:1035A00000000078C00768B9FFE746F2AA30C0F211
:1035B0000000FFF767FF40F2D601C2F200010120D0
:1035C0000870FFE70120FFF763F9FFE740F204000E
:1035D000C2F200000078022819D1FFE740F2D600BD
:1035E000C2F200000078C00768B9FFE746F2463033
:1035F000C0F20000FFF746FF40F2D601C2F2000120
:1036000001200870FFE70220FFF742F9FFE740F2D0
:103610000400C2F200000078032819D1FFE740F24D
:10362000D600C2F200000078C00768B9FFE746F292
:103630006430C0F20000FFF725FF40F2D601C2F26D
:10364000000101200870FFE70320FFF721F9FFE7E1
:1036500040F20400C2F200000078042819D1FFE70C
:1036600040F2D600C2F200000078C00768B9FFE758
:1036700046F28330C0F20000FFF704FF40F2D601AB
:10368000C2F2000101200870FFE70420FFF700F9F3
:10369000FFE740F20400C2F200000078052819D1CB
:1036A000FFE740F2D600C2F200000078C00768B918
:1036B000FFE746F22D40C0F20000FFF7E3FE40F2C4
:1036C000D601C2F2000101200870FFE70520FFF7D4
:1036D000DFF8FFE740F20400C2F20000007806289D
:1036E00019D1FFE740F2D600C2F200000078C0070F
:1036F00068B9FFE746F2E930C0F20000FFF7C2FE0A
:1037000040F2D601C2F2000101200870FFE7062056
:10371000FFF7BEF8FFE740F20400C2F200000078B5
:10372000072819D1FFE740F2D600C2F20000007866
:10373000C00768B9FFE746F20740C0F20000FFF794
:10374000A1FE40F2D601C2F2000101200870FFE79D
:103750000720FFF79DF8FFE7F7E6000080B583B08C
:1037600084460598ADF808C0ADF80610ADF8042001
:10377000ADF80230ADF80000BDF90800BDF9061043
:10378000884205DAFFE7BDF80600ADF80A001FE041
:10379000BDF90800BDF90410884205DDFFE7BDF85A
:1037A0000400ADF80A0013E0BDF90800BDF90630C9
:1037B000C01ABDF90020BDF90210521A5043BDF9DC
:1037C0000420D21A90FBF2F00844ADF80A00FFE79B
:1037D000BDF90A0003B080BD5FEA400C08BF91F05C
:1037E000000F4FEA8C234FEAC12243EA51514FEABE
:1037F0001C5018BF00F5F0404FEA300018BF41F0F0
:1038000000415FEA6C5C00F02980BCF1FF3F08BF1B
:1038100040F080407047130C06BF12044FF0100CAC
:103820004FF0000C130E04BF12020CF1080C130F22
:1038300004BF12010CF1040C930F04BF92000CF1B1
:10384000020CD30F04BF52000CF1010C11464FF0D3
:103850000002A0F11F00A0EB0C00704711F0004F18
:1038600008BF704731F000413FF4D5AF0B0C06BFE5
:1038700009044FF0100C4FF0000C0B0E04BF0902AE
:103880000CF1080C0B0F04BF09010CF1040C8B0F99
:1038900004BF89000CF1020CCB0F04BF49000CF1EE
:1038A000010CCCF1200322FA03F341EA030102FAEE
:1038B0000CF2A0EB0C0000F10100704723F07F47F1
:1038C00020F07F4C80EA030000F00040ACEB0703DF
:1038D00003F57C5303F1FF032DE9804909B44FEA56
:1038E000144324EA03484FEA154B25EA0B4E0FF226
:1038F000042606EB13273E7803FB0667C7F500078F
:1039000007FB06F64FEAD64606F102064FEA5437A1
:1039100007FB066CCCF1005C4FEA1C472CEA074C15
:103920000CFB06F507FB06F404EB15464FEA96166A
:1039300049085FEA320234BF00204FF000404FEAEE
:10394000D13706FB07FC4FEA1C4C0CFB0BF7D21BD4
:1039500003FB0CF761EB07010CFB0EF7B0EB074024
:1039600072EB17420CFB08F734BFA2EB0742B2EB35
:10397000074261EB17414FEA0C444FEA910706FBFF
:1039800007FC4FEA1C4C0CFB0BF7B0EBC74072EB8B
:10399000573203FB0CF734BFA2EBC742B2EBC7426E
:1039A00061EB57310CFB0EF7B0EBC70072EB5772AF
:1039B0000CFB08F734BFA2EBC702B2EBC70261EB06
:1039C00057714FEA816141EA92114FEA826242EAFD
:1039D00090124FEA806004EBCC04039F4FEAD1378A
:1039E00006FB07FC4FEA1C4C0CFB0BF7D21B03FB3E
:1039F0000CF761EB07010CFB0EF7B0EB074072EB25
:103A000017420CFB08F734BFA2EB0742B2EB0742A8
:103A100061EB17414FEA8C5504EB9C244FEA910768
:103A200006FB07FC4FEA1C4C0CFB0BF7B0EBC74046
:103A300072EB573203FB0CF734BFA2EBC742B2EB79
:103A4000C74261EB57310CFB0EF7B0EBC70072EBCE
:103A500057720CFB08F734BFA2EBC702B2EBC702E8
:103A600061EB57714FEA816141EA92114FEA82623C
:103A700042EA90124FEA806015EB4C2544F10004B5
:103A80004FEAD13706FB07FC4FEA1C4C0CFB0BF747
:103A9000D21B03FB0CF761EB07010CFB0EF7B0EB3D
:103AA000074072EB17420CFB08F734BFA2EB07424A
:103AB000B2EB074261EB17414FEA813141EA924193
:103AC0004FEA823242EA90424FEA80304FEA0C7667
:103AD00015EB1C1544F1000448EA03434EEA0B4879
:103AE0004FF0000EB2EB080C71EB030724BF6246E7
:103AF00039464EEB0E0E4FF0000B00185241494173
:103B00004BEB0B0BB2EB080C71EB03077BF1000BDB
:103B100024BF624639464EEB0E0E4FF0000B0018E4
:103B2000524149414BEB0B0BB2EB080C71EB030715
:103B30007BF1000B24BF624639464EEB0E0E51EA74
:103B4000020718BF46F0010616EB0E7655F100028B
:103B500054F1000103D5BDE88901BDE80088BDE846
:103B60008901BDE80048B619524141EB0101A3F1BA
:103B70000103704780807F7E7D7C7B7A79787776C1
:103B800076757473727171706F6E6E6D6C6C6B6A3A
:103B90006A696868676666656464636362616160D8
:103BA000605F5F5E5E5D5D5C5C5B5B5A5A59595855
:103BB00058575756565555555454535352525251BF
:103BC000515050504F4F4F4E4E4D4D4D4C4C4C4B15
:103BD0004B4B4A4A4A49494948484847474747465C
:103BE0004646454545444444444343434342424298
:103BF000424141419C46002B30D477002BD04FEA04
:103C000037071CB503B44FF010004FF01001BAF1A4
:103C1000000F06D0BCF1000FDCBF40F0080040F000
:103C200008014FF000000FBCBDE810400BF1010B84
:103C3000BBF1010F08BF5FEA170722BF12F10102B3
:103C400011F101014FF0004143F1000300F0004089
:103C500043EA00007047F9D35708D0E746EA064622
:103C60004FEA164613F1400F1FDD13F1200FDFBF9F
:103C700016430A46002120335B42BED0C3F1200721
:103C800046EA06464FEA164602FA07F746EA0706EC
:103C900022FA03F2C3F1200701FA07F742EA07020A
:103CA00021FA03F14FF00003A7E746EA020646EACD
:103CB00006464FEA164646EA0106BCBF46EA0646F5
:103CC000360C4FF000034FF000024FF0000194E774
:103CD0002DE9804C70B49A46934691E8380007C8A5
:103CE00031EA400C48BF34EA430C03D5FFF7E6FD48
:103CF000FFF780FFF0BCBDE8008C2DE9804C70B46C
:103D00009A46934691E8380007C810F0804F08BFE4
:103D100013F0804F03D100F005F8FFF76BFFF0BC04
:103D2000BDE8008C20F07F4723F07F4C80EA030041
:103D300000F0004007EB0C03A3F57C53A3F1FE0356
:103D400092F0000F00F0B38095F0000F00F0778044
:103D50002DE901494FEA114021EA00484FEA144693
:103D600024EA064700FB06FC08FB06F607FB08F8FA
:103D700018EB06484CEB164C00FB07F718EB07480E
:103D80004CEB17404FEA124B22EA0B4E4FEA154616
:103D900025EA06470BFB06FC0EFB06F607FB0EFEAC
:103DA0001EEB064E4CEB164C0BFB07F71EEB074EBB
:103DB0004CEB174B18EB0B0840F1000018EB0E0B07
:103DC00058EB000840F100008F1A4FF000014FF04F
:103DD00000063CBFC943661B14BFB5EB040C0021B1
:103DE0003CBFC943F61B4FEA174427EA04454FEA94
:103DF0001C472CEA074C04FB076205FB07F70CFB8A
:103E000005F616EB074642EB174204FB0CFC16EBDB
:103E10000C4642EB1C421BEB060658EB02024141EA
:103E20004EEA8E0E46EA9E0601D5BDE80189B61916
:103E3000524141EB0101A3F10103BDE801894FEAC1
:103E4000144524EA05464FEA114721EA074C05FBD1
:103E500007F406FB07F70CFB06F111EB074144EBF7
:103E6000174405FB0CFC11EB0C4144EB1C444FEADE
:103E7000124722EA074C05FB07F206FB07F70CFB8B
:103E800006F616EB074642EB174205FB0CFC16EB59
:103E90000C4642EB1C456A1854F1000148BF7047BC
:103EA000B619524141EB0101A3F10103704795F0AE
:103EB000000F37D04FEA114221EA02464FEA144779
:103EC00024EA074C02FB07F106FB07F70CFB06F49C
:103ED00014EB074441EB174102FB0CFC14EB0C44C0
:103EE00041EB1C414FEA154725EA074C02FB07F559
:103EF00006FB07F70CFB06F616EB074645EB1745E6
:103F000002FB0CFC16EB0C4645EB1C42121951F15E
:103F1000000148BF7047B619524141EB0101A3F1BE
:103F2000010370474FEA144524EA05464FEA11475A
:103F300021EA074C05FB07F106FB07F70CFB06F22D
:103F400012EB074241EB174105FB0CFC12EB0C4254
:103F500051EB1C414FF0000648BF7047921841EBEF
:103F60000101A3F101037047490050EAC12018BFC5
:103F700004204A0D18BF40F0010040F2FF72B2EB7E
:103F8000515F08BF40F00200012808BF05207047BC
:103F90002DE9F0414F1E00EBC7010446D1E90001B5
:103FA00015461E4637F006020DD02A46334601F06C
:103FB00065F97F1E04EBC703D3E9002300F0F2FE8E
:103FC00037F00602F1D1022F25D0042F13D0062F8F
:103FD00018BFBDE8F0812A46334601F04FF9D4E915
:103FE0000A2300F0DFFE2A46334601F047F9D4E900
:103FF000082300F0D7FE2A46334601F03FF9D4E902
:10400000062300F0CFFE2A46334601F037F9D4E903
:10401000042300F0C7FE2A46334601F02FF9D4E905
:10402000022300F0BFFE2A46334601F027F9D4E907
:104030000023BDE8F04100F0B5BE000000221346A9
:104040001046014900F06ABF0000F03F012201F074
:1040500098BE00F0A7BE002213461046114600F09D
:104060005DBF40F2013200204FF0E04101F089BE17
:10407000024A0020110701F084BE000001FDFFFF8D
:1040800030380A2801D20120704700207047000014
:104090002DE9F84F04460D4621F000400091734988
:1040A000814211DC7249884201DC06D12CB12046E4
:1040B0002946BDE8F84FFFF7C9BF6E48002DCCBFB9
:1040C0006D496E49BDE8F88F6D49814211DD6D493A
:1040D0008142D8BF4FF0FF366DDD20462946FFF7FD
:1040E00043FF042808BFFFF7C3FF20462946BDE869
:1040F000F88F6549654F25F00045814233DD6449FD
:10410000814219DD002632464FF080432046294681
:1041100000F048FE80468A4601222046294601F0EA
:1041200030FE00223B4601F0B5FA4246534600F00D
:10413000F5FE04460D463EE001260022BA463B4607
:104140002046294600F02EFE80460F4600225346A8
:104150002046294601F09EFA42463B4600F0DEFE2C
:1041600004460D4627E04B4981421BDDDFF828A1BC
:104170000226002253462046294601F07FF80022FD
:104180003B4600F00FFE80460F4600225346204675
:10419000294601F07FFA42463B4600F0BFFE044646
:1041A0000D4608E0032622462B4600203B4900F03E
:1041B000B5FE04460D4622462B461046194601F030
:1041C0005DF88B46824602460B4601F057F80746DB
:1041D0000246334888460B4606217844FFF7D8FE4E
:1041E00052465B4601F04AF882462E488B463A46D4
:1041F000434605217844FFF7CBFE3A46434601F09B
:104200003DF802460B46002E504659460CDA00F0A7
:10421000C9FD22462B4601F031F801B022462B465B
:10422000BDE8F04F01F05EB900F0BCFD22462B4620
:1042300001F024F81C4A7A4402EBC603D3E90023B8
:1042400001F028FA22462B4601F024FA174A7A4454
:1042500002EBC603D3E9002301F044F9009A002AD7
:10426000B8BF81F00041BDE8F88F000000001044A5
:104270000000F07F182D4454FB21F93FFB21F9BFCA
:104280000000DC3F0000203E0000F33F0000F03F54
:104290000000E63F008003400000F83F0000F0BF50
:1042A0009A1C0000581C0000F61B0000BE1B0000FA
:1042B0002DE9F04D1D460C4694B0174621F0004103
:1042C00023F00043002814BF4FF0010C4FF0000C06
:1042D0000CEB440CFB4A0CEB02064FEA620C664501
:1042E0002BD33E0018BF012606EB45061644F64ABE
:1042F000964222D3F54A53EA070C02D0944205D1E4
:1043000048B914B000201146BDE8F08D002808BF60
:104310004FF0000C01D04FF0010C0CEB440212F5F1
:10432000001F0AD8002F14BF4FF0010C4FF0000CF3
:104330000CEB450212F5001F07D914B03A462B4684
:104340002146BDE8F04DFFF784BE0022DFF880A3D0
:10435000002CB8BF534526DADFF878C36345A8BF01
:10436000022220DADFF864C39C451CDCDFF868C356
:104370000CEB235CBCF1140F08DDCCF1340627FAFA
:1043800006FC0CFA06F6BE420DD108E05FB9CCF18E
:10439000140623FA06FC0CFA06F69E4203D10CF032
:1043A0000102C2F1020251EA000C19D1002D17DA04
:1043B000002C18BF022A01D0012A07D00220FCF7E6
:1043C00094F814B0BDE8F04DFFF738BE0220FCF7BA
:1043D0008CF8FFF733FE14B081F00041BDE8F08D9A
:1043E000B7F1000C6CD1534525D104F1804212F590
:1043F000801201BF00280020B44914B008BFBDE8F6
:10440000F08DB248884207DC002DA1BF60462946E6
:1044100014B0BDE8F08D07E0002DBFBF604685F009
:10442000004114B0BDE8F08DAC497944D1E90001F8
:1044300014B0BDE8F08DDFF894C2634525D1002D9E
:104440001FDA19B1514512D1D8B909E0002840F05E
:10445000F6829F4A214614B062F31E01BDE8F08D3A
:104460000020214614B060F31E01BDE8F08D08DA8B
:1044700014B02346BDE8F04D02460020614600F02E
:104480004DBD14B02146BDE8F08D514518DAB5F1A7
:10449000804F0DD0A5F1005CBCF1FF5C10D1B4F1F0
:1044A000000C0DDB14B06146BDE8F04D00F0F6BB2A
:1044B000234614B00246BDE8F04D194600F0DEBEBA
:1044C000060024F0004C3BD1D9B1514533D1002C2A
:1044D00006DD002DA1BF0020514614B0BDE8F08DCF
:1044E000002C01DD002D1BDB002C13DA002D11DB6D
:1044F000012A4FF0000014BF7549794914B0BDE896
:10450000F08D022A18BF002C0AD0012A08D1002CF5
:1045100006DA0AE0002CB8BF002D11DA012A04D017
:10452000002014B00146BDE8F08D14B000204FF01B
:104530000041BDE8F08DA1F14050B0F17F601AD08C
:10454000012000EBE47050EA020421D05F4C521EBF
:104550004FF0000B104304BF4FF0000B614C62485A
:1045600083427DDD614A6248934229DD884217DB40
:10457000002D2FDB41E0002C00DA4AB1022A0CBFEB
:1045800001204FF0FF3014B0BDE8F04D00F022BE26
:104590000120FBF7AAFF14B0BDE8F04DFFF75BBDAB
:1045A0004A4A8A420CDC002D14DC0220FBF79DFFF6
:1045B000FFF75EFD61F31E0414B02146BDE8F08DE7
:1045C000814202DA002D18DA04E0404B994220DDE6
:1045D000002D12DD0220FBF788FFFFF742FD0546A4
:1045E0000E46002253465846214600F047FE14B0BE
:1045F00066F31E012846BDE8F08D0220FBF775FF2B
:10460000FFF736FD0A46214614B062F31E01BDE8ED
:10461000F08D00223046614601F03CF8064688469F
:104620006FF0010201F0ADFB4FF05532314B00F05D
:1046300059FF3246434600F021FE00222E4B00F087
:1046400051FF8A463246434602901046194600F012
:1046500015FE5346029A00F011FE8246324600E0F3
:1046600054E0059143464FF0C040244900F006FE57
:10467000CDE90C01224A214B5046059900F0FEFD80
:10468000824601911F4A204B3046414600F0F6FD1C
:104690005246019B00F0FEFF82460B4602460991FE
:1046A000DDE90C0100F07EFBDDE90C2300268846E5
:1046B000304600F0EFFF5246099B00F013FF024620
:1046C00000F07EB9FFFF1F00FFFF0F000000F03F6A
:1046D0000000F07F0000404301FCFFFF4A1B000088
:1046E0000000F0FF0000F0BF0000E0410000F043D8
:1046F000FFFFEF3F5555D53F0000E03F4715F73F1F
:10470000FE822B6544DF5DF80BAE543E0020B1F510
:10471000801F07DA35223046614601F032FB06463B
:104720006FF0340000EB2150A0F2FF300190C1F394
:10473000130040F07F6141F040510291FE498842F0
:10474000D8BF002004DDFD498142C8BF012001DD42
:104750000F9008E000200F900198401C01900298F3
:10476000A0F5801002900299F548784405910F99C0
:1047700000EBC1001290D0E900233046059900F00B
:1047800089FFCDE90C011298D0E900233046059944
:1047900000F008FB02460B460020EA4900F0BEFB91
:1047A0000B46CDE908010246DDE90C0100F066FD8B
:1047B0000A90E5488A464FF000087844029900685C
:1047C00010904FF0005040EA61010F9801EB8040DB
:1047D00000F5002112981191D0E90023109800F003
:1047E00059FF3246059B00F07DFE4246534600F0DD
:1047F00045FDDDE91023064603914046514600F091
:104800003DFDDDE90C2300F06DFE3246039B00F018
:1048100041FFDDE9082300F031FD03910A9A12906F
:1048200053461046194600F029FD06460246C74881
:104830000B46029106217844FFF7AAFB029B324601
:10484000059108901046194600F018FD059B089A3E
:1048500000F014FD064609915346404619460A9A4F
:1048600000F0A0FA039B129A00F008FD3246099B63
:1048700000F098FACDE90801424653461046194621
:1048800000F0FCFC02460B46029104900020B04967
:1048900000F088FADDE9082300F084FA0E4642466B
:1048A000AB4B404600F0F6FE029B049A00F0F2FE8D
:1048B000DDE9082300F016FE4246049102903346DB
:1048C0001046514600F0DAFCCDE90C0153460A9A35
:1048D0000499029800F0D2FC824600913346424689
:1048E0000399129800F0CAFC5246009B00F05AFA55
:1048F00082460B4602460991DDE90C0100F052FAAE
:10490000DDE90C2300268846304600F0C3FE5246FF
:10491000099B00F0E7FDCDE90801434632464FF020
:1049200060408C4900F0AAFC82460491DDE9080150
:10493000894A884B00F0A2FC02910090434632461F
:104940008648874900F09AFC029B009A00F02AFAF8
:10495000844B7B440F9A03EBC203D3E9002300F09E
:1049600021FA00900291019800F034FC0E9003911E
:104970005046029B009A049900F014FA7A4A7A444D
:104980000F9B02EBC3030993D3E9002300F00AFA5B
:10499000039B0E9A00F006FA88463046039B0E9A57
:1049A00000F078FE099BD3E9002300F073FE524625
:1049B000049B00F06FFE029B009A00F093FD0246FC
:1049C00000200B4602903846294600F057FC8246EC
:1049D00003912B4638461946029A00F05BFE324698
:1049E000434600F04BFC5246039B00F0DBF90746C0
:1049F0008A46324643462946029800F03FFC054667
:104A00000E463A46534600F0CDF9584A8846914240
:104A100021DBA8EB020353EA000210D12A463346F9
:104A200000F038FECDE90310514A524B384651464A
:104A300000F0B8F9DDE9033200F01EFD21D20220BA
:104A4000FBF753FDFFF70DFB0A46214614B062F356
:104A50001E01BDE8F08D484B28F000429A4210D369
:104A6000464A08EB020353EA00027FF4C6AD2A4629
:104A7000334600F00FFE3A46534600F0FDFC7FF649
:104A8000BCAD0022019228F000403D493D4A01EBB7
:104A90002051824223DA481C4FF4801121FA00F0A1
:104AA0004044394AC0F30A517A44384BA1F2FF31ED
:104AB000CB4020EA0303C0F3130040F48010C1F19F
:104AC0001401C84012680190B8F1000FBCBF404209
:104AD00001902846314600F0DDFD05460E462A4687
:104AE00033463846514600F05DF94FF00008424623
:104AF000274B4046039100F0C1FBCDE90C01254A4C
:104B0000254B4046039900F0B9FB029100902A46DC
:104B100033464046039900F0BDFD3A46534600F047
:104B2000E1FC1E4A1E4B00F0A9FB029B009A00F01C
:104B300039F90746884635E08E9803007AB60B00AF
:104B40003A1700000000F03FBA1700009E16000060
:104B50000000084009C7EE3FFD033ADCF5015B1495
:104B6000E02F3EBE72150000361500000000904098
:104B7000FE822B654715973C00CC904000346F3F78
:104B800001FCFFFF0000E03FCC140000FFFF0F001E
:104B9000432EE63F396CA80C615C20BEEF39FAFE6B
:104BA000422EE63F02460B46DDE90C0100F0FAF822
:104BB000DDE90C2305460E4600F06CFD3A464346FF
:104BC00000F090FC07462A463346059110461946E8
:104BD00000F054FB824602462E4888460B460521CB
:104BE0007844FFF7D5F95246434600F047FB2A4682
:104BF000334600F077FC80468A463A4628463146DE
:104C0000059B00F03BFB3A46059B00F0CBF8059175
:104C1000009000224FF080434046514600F03AFD9C
:104C200007460391424653462846314600F026FB8C
:104C30003A46039B00F072F9059B009A00F02AFDAA
:104C40002A46334600F026FD0022134B00F04AFCB2
:104C5000054601980E4601EB00510815002810DCAE
:104C600028463146019A01F08CF8FFF77DF90428B7
:104C700008BFFFF7FDF928463146019A01F081F897
:104C800005460B4614B02A4658462146BDE8F04D6D
:104C900000F0F4BA241300000000F03F2DE9F041C9
:104CA00006460F4600F02AFC041E0D4618BF0120E0
:104CB000284320F00040C0F17F6000F1E040C00FC9
:104CC0000ED0301C18BF0120384320F00040C0F146
:104CD0007F6000F1E040C00F04BF0120FBF705FC3E
:104CE00020462946BDE8F08110B500290AD0087891
:104CF000002807D005487844FCF722FC002801D0A2
:104D0000002010BD0248784410BD00007A17000052
:104D10007217000010B500290AD00878002807D0C3
:104D200005487844FCF70CFC002801D0002010BD99
:104D30000248784410BD00006A17000062170000A6
:104D400021F0004201F00043A2F16052B2F5801F51
:104D500028BFD2F17F6C0BD95FEA001C43EAC20284
:104D600042EB507018BF704728BF20F00100704719
:104D7000B2F5801FBCBF184670474FEA410C1CF5C6
:104D8000001F02D2084600F0C1BF70B500F020FB42
:104D900000000089FFF7F6BF4FF00040A0F580004B
:104DA0007047000010B591EA030F48BF83F000433D
:104DB00000F17884841A71EB030C05D2121943EBCD
:104DC0000C03001B61EB0C014FEA1154A4EB135CC4
:104DD000DFF81CE11EEA430F18BF9EEA445F00F0B3
:104DE000748021EA045123EA0E0343F48013DCF1BA
:104DF000200E32D322FA0CFE10EB0E0023FA0CFE2A
:104E000041EB0E01CCF1200E03FA0EFE10EB0E006A
:104E1000CCF1200E51F10001B1F5801F32D201EB2F
:104E2000045112FA0EF2BDE8104058BF7047401C02
:104E300038BF5FEA420218BF7047002814BF20F055
:104E4000010041F100014FEA410313F5001F38BF93
:104E50007047A1F1C04100F009BB012A43EB0302F6
:104E6000ACF1200CDCF11F0E32BF4FF0000E23FA24
:104E70000CF310EB030041EB0451B4EB115FD0D005
:104E8000A1EB045101F58011490801EB04515FEADF
:104E900030000ED350F1000038BF12FA0EFE08D1D8
:104EA000BDE81040C9E7401C38BF5FEA4202CAD1E2
:104EB000C3E7BDE810404FEA410313F5001F38BFB8
:104EC0007047A1F1C04100F0D1BA9EEA445F08D01A
:104ED00011EA5E0FBDE8104004BF01F00041002060
:104EE0007047BDE8104070B500F072FA64FBBE3E3A
:104EF0000000E0FF02494FF0000000F010BF00BFCB
:104F00000000F87F491058BFC1F140415B1058BF05
:104F1000C3F140438B42EFF3008070472DE9C0415D
:104F200030B4DFF8A8C23CEA111418BF3CEA1314ED
:104F300000F0F0801CEA111481EA030544EAD574FC
:104F400018BF1CEA131500F0CB80A4EB050404F194
:104F50007F7404F500344FF0004545EAC12145EA6D
:104F6000C32341EA505143EA52534FEAC0204FEA6B
:104F7000C222994208BF904200F0A0804FEA136518
:104F80000FF24816765D4FEA134506FB05F7C7F1A9
:104F9000807706FB07F74FEAD737A7FB036876420F
:104FA000A7FB06CEC8F5803838BFA8F1010807FB7B
:104FB00008E6A6FB028C4FF0000EE6FB03CED8F10C
:104FC00000086FEA0C0C5CF1000C6FEA0E0E4EF15B
:104FD000004EA6FB0C584FF00007E6FB0E87A1FB26
:104FE00008C6A0FB07CE16EB0E064FF0000545F1F4
:104FF0000005E1FB076515F1E04E7EBFA4F58034A6
:105000005FEA46066D4116F1800745F100054FEA5B
:10501000172747EA05674FEA15254FEA0666A6F106
:10502000DE46B6F1805F20D9384605EBC47124F026
:10503000010C01EB0C11BCF1FE6F02D8F0BCBDE815
:10504000008124425CBF01F5801E9EEAC47F02D429
:10505000F0BCBDE80081244200F13980A1F1C041DB
:10506000F0BCBDE8004100F001BA4FEAD02040EAB0
:1050700041504FEAD1214FEAD22242EA43524FEA4D
:10508000D323A7FB028607FB036605FB02661EEA25
:105090000E0F58BFA6EB0056B6EB00564FEA520E65
:1050A0004EEAC37E18EB0E0E56EB530EBCD518EB32
:1050B00002085E417F1C55F10005B5E74FF48015ED
:1050C0004FF000074FF000064FF00008ACE701F189
:1050D000C04101F000414FF00000F0BCBDE800818C
:1050E0000CEA131511EA0C1F00D00CE013EA0C1F98
:1050F00000F025804FF0000081EA030101F000413B
:10510000F0BCBDE80081F0BCBDE8004181EA0301CC
:1051100000F0ACB9F0BCBDE8004170B500F058F942
:10512000097EFC3E00F007B84FF0000081EA030161
:1051300001F00041704781EA030100F097B9F0BC2B
:10514000BDE8004122494FF000007047FFFDFBF928
:10515000F7F5F4F2F0EEEDEBE9E8E6E4E3E1E0DEAA
:10516000DDDBDAD8D7D5D4D3D1D0CFCDCCCBCAC81C
:10517000C7C6C5C4C2C1C0BFBEBDBCBBBAB9B8B743
:10518000B6B5B4B3B2B1B0AFAEADACABAAA9A8A836
:10519000A7A6A5A4A3A3A2A1A09F9F9E9D9C9C9B04
:1051A0009A999998979796959594939392919190AF
:1051B0008F8F8E8E8D8C8C8B8B8A89898888878740
:1051C0008685858484838382828181800000FF07B5
:1051D0000000F87F10F0004248BF4042B0FA80F370
:1051E00010FA03F10AD0C3F11D0303F5806302EB4B
:1051F00003524FEA415002EBD12170474FF00000BB
:105200007047000051EA030C17D41CF5801F58BFEB
:10521000BCF5801F00F10680994218BF704708BF97
:105220009042704707D711F5801F58BF13F5801FB4
:1052300019D499427047894270471CF5801F08D5E0
:10524000BCF5801FF7D58B4218BF704708BF82425C
:1052500070474FF4001C1CEB410F38BF1CEB430F91
:1052600001D28B42704770B500F0B2F89224490029
:105270004FF000514FF08053FFF744BE70B5DFF898
:1052800048C11CEA111E1EBF1CEA13159EEA0C0F32
:1052900095EA0C0F00F06F8081EA03044EEAD47E99
:1052A000AE4421EA4C1123EA4C1341F4801143F43B
:1052B0008013AEF17F7EA1FB024CA0FB0365361983
:1052C00055EB0C05A1FB034C4CF10003A0FB021CA9
:1052D00016EB0C06654153F10003094218BF46F076
:1052E000010613F4007F0BD14FEA03314FEA05307A
:1052F00041EA155140EA165034036FF003020AE008
:105300004FEAC3214FEAC52041EA555140EA5650C1
:10531000F4026FF0020202EB2E4201EB025585EA25
:10532000CE710AD05FEA440C18BF24F0004450F15B
:10533000000041F1000120EAD47040F2FE7C624599
:1053400000D270BDA84214BF4FF080444FF04044DB
:10535000002E08BF0024BEF1806FA8BFA1F1C0419C
:10536000BDE8704080F2828001F1C04101F000414F
:105370004FF0000070470CEA13159EEA0C0F18BF9F
:1053800095EA0C0F06D081EA030E4FF000000EF0F4
:10539000004170BD00F01CF88900013E00F007B824
:1053A00000F009B84FEA430C5FEA5C5C08D081EA80
:1053B000030100F05BB84FEA410C5FEA5C5CF6D198
:1053C00002494FF0000070470000FF070000F87F1F
:1053D0000EF1020E2EF0030E5EF8046B364205D479
:1053E000012A43EB030515F5001F12D8012841EBF4
:1053F000010C1CF5001F0CD80ED14FEAD17C0CEB30
:105400004C0C0CF1020C15F5001F08BF4CEBD37CC3
:1054100004E04FF0080C01E04FEAD37C0CEB4C05A4
:1054200026FA05F606F00706B6F1040C06D20EEBD6
:10543000860CBDE870404CF0010C6047DFE80CF0D2
:10544000090B02024FF00041A1F500214FF00000CE
:1054500070BD19461046012851EB010418BFD4F560
:10546000001484BF002001F0004170BD0808A0F5C1
:1054700000114FEA3101704753EA010C17D41CF5B3
:10548000801F58BFBCF5801F00F106808B4218BFFB
:10549000704708BF8242704707D713F5801F58BF77
:1054A00011F5801F19D48B4270479B4270471CF541
:1054B000801F08D5BCF5801FF7D5994218BF7047EB
:1054C00008BF904270474FF4001C1CEB430F38BFDD
:1054D0001CEB410F01D2994270470FB40CBC03BCC6
:1054E000FFF7C1BE10B591EA030F81F000413FF50F
:1054F00061AC83F0004300F0D5B800002DE9F04125
:1055000001F5801CBCF5001FC0F2A9804FEA115CB8
:1055100021EA0C5141F480110CF1FD0C5FEA5C0CA6
:105520000CF5C07C01D340004941890241EA905109
:1055300087022EA48E0EA45D0A0C04FB04F602FB67
:1055400006F6C6F14046A4FB0662F60D46EA422680
:1055500006FB06F4A4FB01235242C3F1404338BFCB
:105560005B1EA6FB02420024E6FB0324D20B42EAA8
:105570004446A6FB0623A1FB02E2A3FB07E4E3FBF0
:1055800061426442C2F1404E38BFAEF1010EA6FB4B
:1055900004234FF00002E6FB0E32A2FB0346340068
:1055A000E2FB6264A1FB06E6A4FB07E8E4FB61689A
:1055B0007642C8F1405838BFA8F10108A2FB06E4C2
:1055C000A3FB08E5E2FB6854A1FB05E6A7FB04E8A2
:1055D000E1FB648618F1200556F10006A80940EAAF
:1055E0008660B109A8F11B0808F03F08B8F10A0F5E
:1055F0001CD901EB0C51BDE8F08100BFFCF5EEE8D1
:10560000E2DDD8D3CFCBC7C3C0BDB9B6B4B1AEAC61
:10561000A9A7A5A3A19F9D9B9A9896959392908FD9
:105620008D8C8B898887868584838281A0FB006826
:1056300000FB01F208EB4208B8EB872807D53418C5
:1056400058EB0104D5D5401C51F10001D1E7341AC3
:1056500078EB0104CDD4401E71F10001C9E75FEA87
:105660004C0C5FEA9C5C0DD105D301F000414FF07A
:105670000000BDE8F081BDE8F04170B5FFF7A8FE7D
:105680006DDBFFBEBDE8F04101494FF000007047FF
:105690000000F87F10B591EA030F48BF83F0004384
:1056A0003FF588AB841A71EB030C07D28CF0004CE9
:1056B000121943EB0C03001B61EB0C014FEA115470
:1056C000A4EB135CDFF8A4E11EEA430F18BF9EEAC7
:1056D000445F00F0B48021EA045123EA6E03524291
:1056E000C3EB6E0338BF5B1EDCF1200E25D322FA1C
:1056F0000CFE10EB0E0043FA0CFE41EB0E01CCF158
:10570000200E03FA0EFE10EB0E00CCF1200E51F12C
:10571000000129D401EB045112FA0EF2BDE8104049
:1057200058BF7047401C1CBFB2F1004F70470028A3
:105730000CBF491C20F00100704712EB020E43EB36
:10574000030218BF4FF0010E4EEA4202ACF1200CEA
:10575000DCF11E0E56D943FA0CFE10EB0E00CCF114
:105760001E0E51F1FF31D5D50EF1010E12FA0EFECB
:10577000404141EB010101EB445C5FEA5C5C10D904
:1057800001EB045110EBDE7038BFBEF1004FBDE8F5
:10579000104018BF704700280CBF491C20F00100C2
:1057A000704734D24FEAD42C24F4006411F5001170
:1057B0001BD0B1FA81F20B3AA41AA41ED2F1200335
:1057C000914030FA03F31943904001EBCC7101EBA7
:1057D0000451002CBDE81040A8BF704701F1C04142
:1057E00001F000414FF000007047B0FA80F310FA6A
:1057F00003F102D1BDE810407047E41A173C480598
:10580000C90AE2E701EB0451BDE8104070474910B6
:105810004FEA300001EB0451BDE8104002E04FF0C8
:10582000000170474A0008BF0042F8D0B2F5001FDF
:1058300028BF704701F000414FF0000070479EEA1A
:10584000445F07D011EA5E0FBDE8104004BF00219D
:1058500000207047BDE8104070B5FFF7B9FD00BFEC
:1058600040DFF63E104683F0004170470000E0FF45
:1058700043004FEAD30C4FEA3C0C43401FBF4007A4
:105880000CF1605113F0FE4F70471CF0006F03D114
:105890000CF00041002070470CF0004343EA5070C8
:1058A00040EACC0010B500F0EBF900BF0000009218
:1058B0004FEA0001FFF7DABD4FF00041A1F50021EA
:1058C0004FF00000704710B500F0F6F80CBF012053
:1058D000002010BD10B500F0EFF814BF012000202B
:1058E00010BD10B500F064F98CBF0120002010BD80
:1058F00010B500F05DF92CBF0120002010BD10B5DF
:1059000000F08AF994BF0120002010BD10B500F00E
:1059100083F934BF0120002010BD401058BFC0F1F2
:105920004040491058BFC1F140418142EFF300802F
:10593000704700004FF47F0C1CEAD0121EBF1CEA17
:10594000D11392EA0C0F93EA0C0F00F0858090EAD5
:10595000010F48BF42F4807240F4000C41F4000093
:105960002CF07F4120F07F4000B5A2EB0302814282
:105970000FF2081CACEB504E9EF800E0C0F10000A6
:105980004FEA4E0E00FB0EFC38BF49004FEA2C1CBC
:105990000CFB0EF34FEACE1E0EEB635E4FEA112CAA
:1059A0000EFB0CFC4FEAC1214FEA1C5300FB031114
:1059B00002F5FA024FEA112C0EFB0CFC4FEA013102
:1059C0004FEADC4C00FB0C1142EB2242C14228BFE3
:1059D00009184CEB03335DF804EB10EB410143EB8A
:1059E000C250B2F57C0F38BF704729D512F0F00FC6
:1059F0001CBF00F1C04000F000407047008182836E
:105A00008485868788898B8C8D8E8F9192939596CD
:105A100097999A9C9D9FA0A2A3A5A7A8AAACAEB057
:105A2000B2B3B5B7B9BCBEC0C2C5C7C9CCCED1D45C
:105A3000D7D9DCDFE2E6E9ECF0F3F7FAFE0000008C
:105A40004FEA400C0CF1807CBCF17E4F28BF7047C0
:105A5000B0F1C04000F05AB90CEAD11390EA010F3E
:105A600048BF42F48072624538BF634507D213F4E1
:105A70007F0F16D080EA010000F00040704710B59B
:105A800000F0FEF8097EFC3E00F005B880EA010057
:105A900000F00040704780EA010000F0004000F094
:105AA00035B912F47F0F04BF0248704780EA010045
:105AB00000F02CB90000C07F50EA010C00F1138007
:105AC0001CF5000F58BFBCF5000F01D48842704789
:105AD00007D710F5000F58BF11F5000F15D48842F5
